:100000000C94720F0C949A0F0C949A0F0C949A0FF4
:100010000C949A0F0C949A0F0C949A0F0C949A0FBC
:100020000C949A0F0C949A0F0C949A0F0C947323BF
:100030000C949A0F0C949A0F0C949A0F0C949A0F9C
:100040000C949A0F0C949A0F0C949A0F0C944123D1
:100050000C949A0F0C949A0F0C949A0F05A84CCDFF
:10006000B2D44EB93836A9020C50B9918688083CF2
:10007000A6AAAA2ABE000000803F506C6561736585
:1000800020706F7765726379636C6500546F756378
:100090006873637265656E2052657365742E00C067
:1000A000FFFFFFFF00F0FFFFFFFF03F0FFFFFFFF79
:1000B00003F0FFFFFFFF03FCFFFFFFFF1FFCFFFF3D
:1000C000FFFF1FFCFFFFFFFF1FFFFFFFFFFF3FFFC3
:1000D000FFFFFFFF3FFFFFFFFFFF3FFF070000F0B5
:1000E0003FFF070000F03FFF070000F03FFF070061
:1000F00000F03FFF070000F03FFF070000F03FFF68
:10010000070000F03FFF070000F03FFF070000F08E
:100110003FFF070000F03FFF070000F03FFF070030
:1001200000F03FFF070000F03FFF070000F03FFF37
:10013000070000F03FFF070000F03FFF070000F05E
:100140003FFF070000F03FFF070000F03FFF070000
:1001500000F03FFF070000F03FFF070000F03FFF07
:10016000070000F03FFF070000F03FFF070000F02E
:100170003FFF070000F03FFF070000F03FFF0700D0
:1001800000F03FFF070000F03FFF070000F03FFFD7
:10019000070000F03FFF070000F03FFF070000F0FE
:1001A0003FFF070000F03FFF070000F03FFF0700A0
:1001B00000F03FFF070000F03FFF070000F03FFFA7
:1001C000070000F03FFF070000F03FFF070000F0CE
:1001D0003FFF070000F03FFF070000F03FFF070070
:1001E00000F03FFF070000F03FFF070000F03FFF77
:1001F000070000F03FFF070000F03FFF070000F09E
:100200003FFF070000F03FFF070000F03FFF07003F
:1002100000F03FFF070000F03FFF070000F03FFF46
:10022000070000F03FFF070000F03FFF070000F06D
:100230003FFF070000F03FFF070000F03FFF07000F
:1002400000F03FFF070000F03FFF070000F03FFF16
:10025000FFFFFFFF3FFFFFFFFFFF3FFFFFFFFFFF2E
:100260003FFCFFFFFFFF1FFCFFFFFFFF1FFCFFFF27
:10027000FFFF1FF0FFFFFFFF03F0FFFFFFFF03F093
:10028000FFFFFFFF03C0FFFFFFFF00F8FFFF0F00AE
:1002900000F8FFFF0F0000FFFFFF0F0000FFFFFF50
:1002A0000F0000FFFFFF0F0000FFFFFF0F0000FF28
:1002B000FFFF0F0000FFFFFF0F0000FFFFFF0F0019
:1002C00000FFFFFF0F0000F8FFFF0F00000000FC21
:1002D0000F00000000FC0F00000000FC0F000000F9
:1002E00000FC0F00000000FC0F00000000FC0F00ED
:1002F000000000FC0F00000000FC0F00000000FCEC
:100300000F00000000FC0F00000000FC0F000000C8
:1003100000FC0F00000000FC0F00000000FC0F00BC
:10032000000000FC0F00000000FC0F00000000FCBB
:100330000F00000000FC0F00000000FC0F00000098
:1003400000FC0F00000000FC0F00000000FC0F008C
:10035000000000FC0F00000000FC0F00000000FC8B
:100360000F00000000FC0F00000000FC0F00000068
:1003700000FC0F00000000FC0F00000000FC0F005C
:10038000000000FC0F00000000FC0F00000000FC5B
:100390000F00000000FC0F00000000FC0F800F00A9
:1003A00000FC0F800F0000FC0FC00F0000FC0FC00E
:1003B0000F0000FC0FE01F0000FC0FE01F0000FC1E
:1003C0000FE01F0000FC0FE01F0000FC0FE01F000B
:1003D00000FC0FE01F0000FC0FE01F0000FC0FE01E
:1003E0001F0000FC0FE01F0000FC0FE01F0000FCDE
:1003F0000FE01F0000FC0FE01F0000FC0FE01F00DB
:1004000000FC0FE01F0000FC0FE01F0000FC0FE0ED
:100410001F0000FC0FE01F0000FC0FE01F0000FCAD
:100420000FE01F0000FC0FE01F0000FC0FE01F00AA
:1004300000FC0FE01F0000FC0FE01F0000FC0FE0BD
:100440001F0000FC0FE01FFFFFFFFFFF1FFFFFFF6C
:10045000FFFF1FFFFFFFFFFF1FFFFFFFFFFF1FFF4C
:10046000FFFFFFFF1FFFFFFFFFFF1FFFFFFFFFFF5C
:100470001FFFFFFFFFFF0FFCFFFFFF7F00FEFFFFDF
:10048000FFFF03FEFFFFFFFF03FFFFFFFFFF07FF6D
:10049000FFFFFFFF07FFFFFFFFFF0FFFFFFFFFFF54
:1004A0000FFFFFFFFFFF3FFEFFFFFFFF3FFEFFFFCE
:1004B000FFFF3FFCFFFFFFFF3F00000000E03F00A9
:1004C000000000E03F00000000E03F00000000E00E
:1004D0003F00000000E03F00000000E03F0000009F
:1004E00000E03F00000000E03F00000000E03F00AF
:1004F000000000E03F00000000E03F00000000E0DE
:100500003F00000000E03F00000000E03F0000006E
:1005100000E03F00000000E03F00000000E03F007E
:10052000000000E03F00000000E03F00000000E0AD
:100530003F00000000E03F00000000E03F0000003E
:1005400000E03F00000000E03FE0FFFFFFFF3FE072
:10055000FFFFFFFF3FE0FFFFFFFF3FFCFFFFFFFF4D
:100560003FFCFFFFFFFF3FFEFFFFFFFF0FFEFFFF10
:10057000FFFF0FFFFFFFFFFF07FFFFFFFFFF03FF6F
:10058000FFFFFFFF03FFFFFFFFFF03FFFFFFFF7FF3
:1005900000FF0300000000FF0300000000FF030055
:1005A000000000FF0300000000FF0300000000FF48
:1005B0000300000000FF0300000000FF0300000034
:1005C00000FF0300000000FF0300000000FF030025
:1005D000000000FF0300000000FF0300000000FF18
:1005E0000300000000FF0300000000FF0300000004
:1005F00000FF0300000000FF0300000000FF0300F5
:10060000000000FF0300000000FF0300000000FFE7
:100610000300000000FF0300000000FF03000000D3
:1006200000FFFFFFFFFF07FFFFFFFFFF07FFFFFFC9
:10063000FFFF0FFFFFFFFFFF3FFFFFFFFFFF3FFF3A
:10064000FFFFFFFF3FFFFFFFFFFF3FFFFFFFFFFF3A
:100650003FFFFFFFFFFF3FFFFFFFFFFF0FFFFFFF1A
:10066000FFFF07FCFFFFFFFF01FEFFFFFFFF0FFE85
:10067000FFFFFFFF0FFFFFFFFFFF1FFFFFFFFFFF5A
:100680003FFFFFFFFFFF3FFFFFFFFFFF3FFFFFFFBA
:10069000FFFF3FFEFFFFFFFF3FFEFFFFFFFF3FFCAF
:1006A000FFFFFFFF3F00000000C03F00000000C050
:1006B0003F00000000C03F00000000C03F000000FD
:1006C00000C03F00000000C03F00000000C03F002D
:1006D000000000C03F00000000C03F00000000C05C
:1006E0003F00000000C03F00000000C03F000000CD
:1006F00000C03F00000000C03F00000000C03F00FD
:10070000000000C03F00000000C03F00000000C02B
:100710003F00000000C03F00000000C03F0000009C
:1007200000C03F00000000C03F00000000E03F00AC
:10073000000000F03F00F8FFFFFF3F00F8FFFFFF61
:100740003F00FCFFFFFF3F00FEFFFFFF1F00FEFF1B
:10075000FFFF0F00FEFFFFFF0F00FEFFFFFF0F0078
:10076000FEFFFFFF1F00FEFFFFFF1F00FCFFFFFF5C
:100770003F00F8FFFFFF3F00000000F03F000000D7
:1007800000F03F00000000E03F00000000C03F001C
:10079000000000C03F00000000C03F00000000C09B
:1007A0003F00000000C03F00000000C03F0000000C
:1007B00000C03F00000000C03F00000000C03F003C
:1007C000000000C03F00000000C03F00000000C06B
:1007D0003F00000000C03F00000000C03F000000DC
:1007E00000C03F00000000C03F00000000C03F000C
:1007F000000000C03F00000000C03F00000000C03B
:100800003F00000000C03F00000000C03FFCFFFFB1
:10081000FFFF3FFEFFFFFFFF3FFFFFFFFFFF3FFF29
:10082000FFFFFFFF3FFFFFFFFFFF3FFFFFFFFFFF58
:100830003FFFFFFFFFFF3FFFFFFFFFFF1FFEFFFF29
:10084000FFFF0FFCFFFFFFFF01FCFFFFFFFF01FCAD
:100850000000000000FC0000000000FE010000009D
:1008600000FF0700000000FF0700000000FF070076
:10087000000000FF0700000000FF0700000000FF6D
:100880000700000000FF0700000000FF0700001F36
:1008900000FF0700807F00FF0700807F00FF070048
:1008A000C0FF01FF0700C0FF01FF0700C0FF01FFFD
:1008B0000700C0FF01FF0700C0FF01FF0700C0FFE6
:1008C00001FF0700C0FF01FF0700C0FF01FF070095
:1008D000C0FF01FF0700C0FF01FF0700C0FF01FFCD
:1008E0000700C0FF01FF0700C0FF01FF0700C0FFB6
:1008F00001FF0700C0FF01FF0700C0FF01FF070065
:10090000C0FF01FF0700C0FF01FF0700C0FF01FF9C
:100910000700C0FF01FF0700C0FF01FF0700C0FF85
:1009200001FF0700C0FF01FF0700C0FF01FF070034
:10093000C0FF01FF0700C0FF01FF0700C0FF01FF6C
:100940000700C0FF01FF0700C0FF01FF0700C0FF55
:1009500001FF0700C0FF01FF0700C0FF01FFFFFF0D
:10096000FFFF07FFFFFFFFFF0FFFFFFFFFFF0FFF6F
:10097000FFFFFFFF3FFFFFFFFFFF3FFFFFFFFFFF07
:100980003FFFFFFFFFFF3FFFFFFFFFFF3FFFFFFFB7
:10099000FFFF0FFFFFFFFFFF0FFFFFFFFFFF07003E
:1009A0000000C0FF01000000C0FF01000000C0FF08
:1009B00001000000C0FF01000000C0FF01000000B6
:1009C000C0FF01000000C0FF01000000C0FF0100E7
:1009D0000000C0FF01000000C0FF01000000C0FFD8
:1009E00001000000C0FF01000000C0FF0100000086
:1009F000C0FF01000000C0FF01000000C0FF0100B7
:100A00000000C0FF01000000C0FF01000000C0FFA7
:100A100001000000C0FF01000000C0FF0100000055
:100A2000C0FF01000000C0FF01000000807F000047
:100A30000000001F00000000001F0000FEFFFFFF7D
:100A40000700FEFFFFFF0F00FEFFFFFF0F00FEFF8E
:100A5000FFFF3F00FEFFFFFF3F00FEFFFFFF3F00E5
:100A6000FEFFFFFF3F00FEFFFFFF3F00FEFFFFFF17
:100A70000F00FEFFFFFF0700FEFFFFFF0700FE0362
:100A800000000000FE0300000000FE030000000064
:100A9000FE0300000000FE0300000000FE03000053
:100AA0000000FE0300000000FE0300000000FE0343
:100AB00000000000FE0300000000FE030000000034
:100AC000FE0300000000FE0300000000FE03000023
:100AD0000000FE0300000000FE0300000000FE0313
:100AE00000000000FE0300000000FE030000000004
:100AF000FE0300000000FE0300000000FE030000F3
:100B00000000FE0300000000FE0300000000FEFFE6
:100B1000FF3F0000FEFFFFFF0100FEFFFFFF01009F
:100B2000FEFFFFFF0700FEFFFFFF0F00FEFFFFFFBE
:100B30000F00FEFFFFFF0F00FEFFFFFF3F00FEFF65
:100B4000FFFF3F00FEFFFFFF3F00FEFFFFFF3F00F4
:100B5000000000F83F00000000F83F00000000F82F
:100B60003F00000000F83F00000000F83F000000D8
:100B700000F83F00000000F83F00000000F83F00D0
:100B8000000000F83F00000000F83F00000000F8FF
:100B90003F00000000F83F00000000F83F000000A8
:100BA00000F83F00000000F83F00000000F83F00A0
:100BB000000000F83F00000000F83F00000000F8CF
:100BC0003F00000000F83F7E000000F83FFF0100FA
:100BD00000F83FFF010000F83FFF0F0000F83FFF63
:100BE000FFFFFFFF3FFFFFFFFFFF3FFFFFFFFFFF95
:100BF0003FFFFFFFFFFF3FFFFFFFFFFF0FFEFFFF76
:100C0000FFFF0FFEFFFFFFFF0FF0FFFFFFFF0700DB
:100C1000FFFFFFFF0100F8FFFF3F0000F8FFFF3F6D
:100C20000000F8FFFF3F00FC1F00000000FE1F0057
:100C3000000000FE1F00000000FF7F00000000FF1A
:100C40007F00000000FF7F00000000FF7F00000029
:100C500000FF7F00000000FF1F00000000FF1F00DA
:100C6000000000FF1F00000000FF0300000000FF65
:100C70000300000000FF0300000000FF030000006D
:100C800000FF0300000000FF0300000000FF03005E
:100C9000000000FF0300000000FF0300000000FF51
:100CA0000300000000FF0300000000FF030000003D
:100CB00000FF0300000000FF0300000000FF03002E
:100CC000000000FF0300000000FF0300000000FF21
:100CD0000300000000FF0300000000FF030000000D
:100CE00000FF0300000000FF0300000000FF0300FE
:100CF000000000FF0300000000FF0300000000FFF1
:100D00000300000000FF0300000000FF03000000DC
:100D100000FF0300000000FF0300000000FF0300CD
:100D2000000000FF0300000000FF0300000000FFC0
:100D30000300000000FFFFFFFFFF0FFFFFFFFFFFAB
:100D40001FFFFFFFFFFF1FFFFFFFFFFF3FFFFFFF33
:100D5000FFFF3FFFFFFFFFFF3FFFFFFFFFFF3FFFE3
:100D6000FFFFFFFF3FFFFFFFFFFF3FFFFFFFFFFF13
:100D70003FFFFFFFFFFF3FFF030000F03FFF0300C7
:100D800000F03FFF030000F03FFF030000F03FFFD3
:100D9000030000F03FFF030000F03FFF030000F0FE
:100DA0003FFF030000F03FFF030000F03FFF0300A0
:100DB00000F03FFF030000F03FFF030000F03FFFA3
:100DC000030000F03FFF030000F03FFF030000F0CE
:100DD0003FFFFFFFFFFF3FFFFFFFFFFF3FFFFFFF63
:100DE000FFFF3FFFFFFFFFFF3FFFFFFFFFFF3FFF53
:100DF000FFFFFFFF3FFFFFFFFFFF3FFFFFFFFFFF83
:100E00003FFEFFFFFFFF1FFEFFFFFFFF1FFCFFFF77
:100E1000FFFF0FFEFFFFFFFF3FFFFFFFFFFF3FFF53
:100E2000FFFFFFFF3FFFFFFFFFFF3FFFFFFFFFFF52
:100E30003FFFFFFFFFFF3FFFFFFFFFFF3FFFFFFF02
:100E4000FFFF3FFFFFFFFFFF3FFFFFFFFFFF3FFFF2
:100E5000FFFFFFFF3FFF010000F03F7F000000F0B9
:100E60003F7F000000F03F7E000000F03F000000E8
:100E700000F03F00000000F03F00000000F03F00E5
:100E8000000000F03F00000000F03F00000000F014
:100E90003F00000000F03F00000000F03F000000B5
:100EA00000F03F00000000F03F00000000F03F00B5
:100EB000000000F03F00000000F03F00000000F0E4
:100EC0003F00000000F03F00000000FC3F00000079
:100ED00000FC3F00000000FC3F00000000FF3F005E
:100EE000000080FF1F00000080FF1F000000E0FFE7
:100EF00007000000F0FF03000000F0FF0300000007
:100F0000F8FF01000000FE7F00000080FF7F00006E
:100F10000080FF7F000000C0FF0F000000E0FF0F17
:100F2000000000F0FF03000000F0FF03000000F8E5
:100F3000FF00000000FC7F00000000FC7F000000BC
:100F400000FC1F00000000FC0F00000000FC070078
:100F5000000000FC0700000000FC0700000000FC8F
:100F60000700000000FC0700000000FC0700000074
:100F700000FC0700000000FC0700000000FC070068
:100F8000000000FC0700000000FC0700000000FC5F
:100F90000700000000FC0700000000FC0700000044
:100FA00000FC0700000000FC0700000000FC070038
:100FB000000000FC0700000000FC0700000000FC2F
:100FC0000700000000FC0700000000FC0700000014
:100FD00000FC0700000000FC0700000000FC070008
:100FE000000000FC0700000000FC0700000000FCFF
:100FF0000700000000F80300000000F001000000FE
:10100000F0FFFF030000F8FFFF070000F8FFFF07F5
:101010000000FCFFFF0F0000FCFFFF0F0000FCFFC3
:10102000FF0F0000FCFFFF0F0000FCFFFF0F0000A0
:10103000FCFFFF0F0000FCFFFF0F0000FCFFFF0F95
:101040000000FC0FFC0F0000FC0FFC0F0000FC0F69
:10105000FC0F0000FC0FFC0F0000FC0FFC0F000059
:10106000FC0FFC0F0000FC0FFC0F0000FC0FFC0F3E
:101070000000FC0FFC0F0000FC0FFC0F0000FC0F39
:10108000FC0F0000FC0FFC0F0000FC0FFC0F000029
:10109000FC0FFC0F0000FC0FFC0F0000FC0FFC0F0E
:1010A0000000FC0FFC0F0000FC0FFC0F0000FC0F09
:1010B000FC0F0000FC0FFC0F0000FC0FFC0F0000F9
:1010C000FC0FFC0F0000FC0FFC0F0000FC0FFC0FDE
:1010D0000000FC0FFC0F00E0FFFFFFFF01F8FFFF27
:1010E000FFFF07FCFFFFFFFF0FFCFFFFFFFF0FFEEF
:1010F000FFFFFFFF1FFEFFFFFFFF1FFFFFFFFFFFC1
:101100003FFFFFFFFFFF3FFFFFFFFFFF3FFFFFFF2F
:10111000FFFF3FFF030000F03FFF030000F03FFF31
:10112000030000F03FFF030000F03FFF030000F06A
:101130003FFF030000F03FFF030000F03FFF03000C
:1011400000F03FFF030000F03FFF030000F03FFF0F
:10115000030000F03FFF030000F03FFF030000F03A
:101160003FFF030000F03FFF030000F03FFF0300DC
:1011700000F03FFF030000F03FFF030000F03FFFDF
:10118000030000F03FFF030000F03FFF030000F00A
:101190003FFF030000F03FFF030000F03FFF0300AC
:1011A00000F03FFF030000F03FFFFFFFFFFF3FFFA6
:1011B000FFFFFFFF3FFFFFFFFFFF3FFFFFFFFFFFBF
:1011C0003FFEFFFFFFFF1FFEFFFFFFFF1FFEFFFFB2
:1011D000FFFF1FFCFFFFFFFF0FF8FFFFFFFF07F8F8
:1011E000FFFFFFFF07E0FFFFFFFF01FCFFFFFFFF27
:1011F0001FFEFFFFFFFF1FFEFFFFFFFF1FFFFFFFA1
:10120000FFFF3FFFFFFFFFFF3FFFFFFFFFFF3FFF2E
:10121000FFFFFFFF3FFFFFFFFFFF3FFFFFFFFFFF5E
:101220003FFFFFFFFFFF3FFFFFFFFFFF3FFF030009
:1012300000E03FFF030000E03FFF030000E03FFF4E
:10124000030000E03FFF030000E03FFF030000E079
:101250003FFF030000E03FFF030000E03FFF03000B
:1012600000E03FFF030000E03FFF030000E03FFF1E
:10127000030000E03FFF030000E03FFF030000E049
:101280003FFF030000E03FFFFFFFFFFF3FFFFFFFC7
:10129000FFFF3FFFFFFFFFFF3FFFFFFFFFFF3FFF9E
:1012A000FFFFFFFF3FFFFFFFFFFF3FFFFFFFFFFFCE
:1012B0003FFFFFFFFFFF3FFEFFFFFFFF3FFEFFFF80
:1012C000FFFF3FFCFFFFFFFF3F00000000E03F008B
:1012D000000000E03F00000000E03F00000000E0F0
:1012E0003F00000000E03F00000000E03F00000081
:1012F00000E03F00000000E03F00000000E03F0091
:10130000000000E03F00000000E03F00000000E0BF
:101310003F00000000E03F00000000E03F00000050
:1013200000E03F00000000E03F00000000E03F0060
:10133000000000E03F00000000E03F00000000E08F
:101340003F00000000E03F00000000E03F00000020
:1013500000E03F00000000E03F00000000E03F0030
:10136000000000E03F00000000E03F00000000E05F
:101370003F00000000E03F00000000E03F000000F0
:1013800000E03F00000000E03F00000000E03F0000
:10139000000000E03F00000000FC3F00000000FEF5
:1013A0003F00000000FE3F00000000FF3F00000083
:1013B00000FF3F00000000FF3F00000000FF3F0073
:1013C000000000FF3F00000000FE1F00000000FEC4
:1013D0001F00000000FC1F000000000000000000D3
:1013E00000000000000000000000000000000000FD
:1013F00000000000000000000000000000000000ED
:1014000000000000000000000000000000000000DC
:1014100000000000000000000000000000000000CC
:1014200000000000000000000000000000000000BC
:1014300000000000000000000000000000000000AC
:10144000000000000000000000000000000000009C
:10145000000000000000000000000000000000008C
:10146000000000000000000000000000000000007C
:10147000000000000000000000000000000000006C
:10148000000000000000000000000000000000005C
:10149000000000000000000000000000000000004C
:1014A000000000000000000000000000000000003C
:1014B000000000000000000000000000000000002C
:1014C000000000000000000000000000000000001C
:1014D000000000000000000000000000000000000C
:1014E00000000000000000000000000000000000FC
:1014F00000000000000000000000000000000000EC
:1015000000000000000000000000000000000000DB
:1015100000000000000000000000000000000000CB
:1015200000000000000000000000000000000000BB
:1015300000000000000000000000000000000000AB
:101540000000000000000000FCFF00000000FCFFA5
:1015500000000000FEFF01000080FFFF030000808C
:10156000FFFF03000080FFFF03000080FFFF030078
:101570000080FFFF03000080FFFF03000080FFFFEB
:1015800003000080FFFF03000080FFFF03000080D6
:10159000FFFF03000080FFFF03000080FFFF030048
:1015A0000000FEFF01000000FEFF01000000FCFF44
:1015B000000000000000000000000000000000002B
:1015C000000000000000000000000000000000001B
:1015D000000000000000000000000000000000000B
:1015E00000000000000000000000000000000000FB
:10189000000000F0FFFFFFFF01F0FFFFFFFF01FC72
:1018A000FFFFFFFF1FFCFFFFFFFF1FFCFFFFFFFF0E
:1018B0001FFCFFFFFFFF1FFCFFFFFFFF1FFCFFFFE1
:1018C000FFFF1FFCFFFFFFFF1FFCFFFFFFFF1FF8D5
:1018D000FFFFFFFF07F0FFFFFFFF01000000000018
:1018E00000000000000000000000000000000000F8
:1018F00000000000000000000000000000000000E8
:1019000000000000000000000000000000000000D7
:1019100000000000000000000000000000000000C7
:1019200000000000000000000000000000000000B7
:1019300000000000000000000000000000000000A7
:101940000000000000000000000000000000000097
:101950000000000000000000000000000000000087
:101960000000000000000000000000000000000077
:101970000000000000000000000000000000000067
:101980000000000000000000000000000000000057
:101990000000000000000000000000E001FC0FFE5D
:1019A0001F0E1C07380738033003300330033003A1
:1019B000300330033003300330033003300738077F
:1019C000380E1CFE1FFC0FE001000600078007C058
:1019D00007E00778073C070C07000700070007002F
:1019E00007000700070007000700070007000700BF
:1019F00007000700070007E003F80FFC1F0E3C0676
:101A000038077000700070003000300018001C00B3
:101A10000E00078003C001600038001C000E00FEAD
:101A20007FFF7FFF7FC003F80FFC3F1E3806700763
:101A300070007000300038800FC00F403E00700012
:101A400060006000600060076006700E78FC3FF880
:101A50000FC0030018001C001E001E001F801F8006
:101A60001DC01CE01C701C301C181C1C1C0E1C060D
:101A70001CFF7FFF7FFF7F001C001C001C001C0060
:101A80001CFC7FFC7FFC7F0C000C000E000E00C6CF
:101A900003F61FFE3F0E78077000600060006000D4
:101AA000600060076006700E38FC3FF80FC00380CE
:101AB00007F01FF83F3C701C600E600600060086B1
:101AC00007E71FF73F1F780F700760076006600683
:101AD0006006600E701C78F83FF01FC003FF7FFFA8
:101AE0007FFF7F00300018000C000E00060003800E
:101AF000038001C001C000C000E000600070007001
:101B00000030003000300038003800C003F80FFC0F
:101B10003F1C380E700E700E700C301C38F81FF021
:101B20000FF81F1E380E7007600760076007600619
:101B3000701E78FC3FF81FC003C003F80FFC1F1E87
:101B4000380E70066007600760076007600E701E41
:101B500078FC6FF867E06100600060077006300E87
:101B600038FC1FF80FE0010000000000000000003A
:101B70000000000000000000000000000000000065
:101B80000000000000000000000000000000001C39
:101B9000001C001C0000000000000000000000000D
:101BA0000000000000000000000000000000000035
:101BB0000000000000000000000000000000000025
:101BC0000000000000000000000000000000000015
:101BD000000000000000000000FC3F0000000000CA
:101BE00000000000000000000000000000000000F5
:101BF00000000000000000002020202020002050D5
:101C00005000000000005050F850F850502078A0CC
:101C100070283020C0C8102040981840A040A090E4
:101C200088701010200000000020404040404020FC
:101C300010080808080810008850F8508800002094
:101C400020F820200000000000404080000000F844
:101C50000000000000000000C0C00008102040800C
:101C600000708898A8C8887020602020202070709C
:101C70000808708080F8F00808700808F008182834
:101C800048F80808F88080F0088870708080F08834
:101C90008870F808081020408070888870888870E4
:101CA000708888781020400000606000606000004C
:101CB0006060002040102040804020100000F800AC
:101CC000F8000040201008102040708808304000C4
:101CD00040202070F0F0F8F8205888F8888888F0C4
:101CE0008888F08888F070888080808870F0888884
:101CF000888888F0F88080F08080F8F88080F08014
:101D0000808070888080988878888888F88888881B
:101D100070202020202070F8101010909060889083
:101D2000A0C0A09088808080808080F888D8A88813
:101D300088888888C8A898888888708888888888CB
:101D400070F08888F080808070888888A89878F003
:101D50008888F0A09088788080700808F0F82020AB
:101D600020202020888888888888708888888888AB
:101D7000502088888888A8D88888885020508888EB
:101D800088888850202020F80810204080F8E080C3
:101D900080808080E000804020100800380808081B
:101DA00008083820508800000000000000000000F3
:101DB000F810100800000000000070888898688003
:101DC00080F0888888F00000788080807808087823
:101DD0008888887800007088F88078102870202023
:101DE0002020000070887808708080F088888888BB
:101DF000200020202020202000202020A0408080C3
:101E00008890A0D088202020202020200000D0A86A
:101E1000A8A8A80000B0C8888888000070888888B2
:101E2000700000F088F08080000078887808080052
:101E300000B0C8808080000078807008F02020709A
:101E400020202030000088888898680000888888D2
:101E5000502000008888A8A8500000885020508892
:101E600000008888F808700000F8102040F8204032
:101E700040804040202020200020202020101008FA
:101E800010102050A0000000000000000000000022
:101E90000000000000000000000000000000000042
:101EA0000000000000000000000000000000000032
:101EB0000000000000000000000000000000000022
:101EC0000000000000000000000000000000000012
:101ED0000000000000000000000000000000000002
:101EE0000000D42911241FBECFEFD0E1DEBFCDBF4B
:101EF00011E0A0E0B1E0ECE1FAE602C005900D923D
:101F0000A63BB107D9F716E0A6EBB1E001C01D92E0
:101F1000A83CB107E1F71EE1C4EEDEE104C0229760
:101F2000FE010E94D134C23ED107C9F70E94E413DA
:101F30000C940C350C94000080E060E040E00E94BE
:101F4000F91480E060E040E00E94D41480E090E06A
:101F500060E070E040E850E020E830E00E94621865
:101F600008952F923F924F925F926F927F928F923D
:101F70009F92AF92BF92CF92DF92EF92FF920F9318
:101F80001F93DF93CF93CDB7DEB76C970FB6F8945E
:101F9000DEBF0FBECDBF0E949C0F1092B701109202
:101FA000B601F8C226E130E0429EF001439EF00DFA
:101FB000529EF00D1124E854FE4F24893589868500
:101FC0009785280F391F3787268781E029363807FC
:101FD0003CF0C90168E671E00E946B349787868700
:101FE000A6E1B0E04A9EF0014B9EF00D5A9EF00D26
:101FF0001124E854FE4F8685978597FF04C08859C1
:102000009E4F9787868726E130E0429EF001439EEF
:10201000F00D529EF00D1124E854FE4F6089718935
:10202000882777FD8095982F0E9452327B018C0182
:1020300020E030E044EB53E40E94443318161CF0D7
:10204000370148010AC0C801B70120E030E044EB85
:1020500053E40E94B3313B014C01C401B30120E0C1
:1020600030E040E050E00E941832882354F4C4016C
:10207000B30120E030E044EB53E40E94B4313B0173
:102080004C0186E190E0489EF001499EF00D589E7B
:10209000F00D1124E854FE4F62897389882777FD7B
:1020A0008095982F0E9452326F87788B898B9A8BFC
:1020B000C801B70120E030E044EB53E40E94443310
:1020C000181654F4C801B70120E030E044EB53E4A3
:1020D0000E94B3317B018C01C801B70120E030E0E0
:1020E00040E050E00E941832882354F4C801B70140
:1020F00020E030E044EB53E40E94B4317B018C01DA
:10210000C801B70121E239EF4EE85CE30E94483391
:102110000E94AB335B016C01C401B30121E239EFD2
:102120004EE85CE30E9448330E941C32A6E1B0E016
:102130004A9E40014B9E900C5A9E900C1124E8EB55
:10214000F1E08E0E9F1E2F85388949895A890E9499
:10215000483390580E941F32882777FD8095982F2A
:102160000E9452329B01AC01D4016D917D918D9101
:102170009C910E94B4317B018C01F40160837183D6
:1021800082839383C601B5012F85388949895A898D
:102190000E94483390580E941F32882777FD80950F
:1021A000982F0E9452329B01AC01D40114966D917C
:1021B0007D918D919C9117970E94B431F4016483B5
:1021C000758386839783C801B70120E030E040E43F
:1021D00050E40E94183288234CF480E090E0AAEF8B
:1021E000B2E4F40180839183A283B38326E130E0DB
:1021F000429E8001439E100D529E100D11240854E2
:102200001E4FD8016D917D918D919C9120E030E021
:102210004AEF52E40E94443318164CF480E090E0F8
:10222000A0E4B0E4F80180839183A283B38326E124
:1022300030E0429E8001439E100D529E100D1124ED
:1022400008541E4FD80114966D917D918D919C91EB
:10225000179720E030E040E450E40E9418328823D1
:102260004CF480E090E0AAEFB2E4F8018483958317
:10227000A683B78326E130E0429E8001439E100D85
:10228000529E100D112408541E4FD80114966D91C2
:102290007D918D919C91179720E030E04AEF52E4B8
:1022A0000E94443318164CF480E090E0A0E4B0E4BF
:1022B000F80184839583A683B7838FEF6FEF4FEF89
:1022C0000E94F91480E060E040E00E94D4141E8671
:1022D0001D860F2EF0E06F2EF0E07F2EF1E08F2EA6
:1022E000F3EC9F2EF02D69827A828B829C8286E1AC
:1022F00090E0489E9001499E300D589E300D11246B
:1023000028543E4F3C8F2B8F225F3F4F3C8B2B8BB3
:10231000AB8DBC8D1896BE8BAD8BEB8DFC8D349642
:10232000F88FEF8B2B8D3C8D245F3F4F3A8F298F99
:10233000AB89BC896D917C91ED85FE856E0F7F1F09
:10234000882777FD8095982F0E9452327B018C015F
:1023500020E030E044EB53E40E94443318161CF0B4
:10236000570168010AC0C801B70120E030E044EB22
:1023700053E40E94B3315B016C01C601B50120E05A
:1023800030E040E050E00E941832882354F4C60147
:10239000B50120E030E044EB53E40E94B4315B012E
:1023A0006C01AD89BE892D903D904D905C90C80127
:1023B000B70120E030E044EB53E40E9444331816A8
:1023C00054F4C801B70120E030E044EB53E40E942C
:1023D000B3317B018C01C801B70120E030E040E05F
:1023E00050E00E941832882354F4C801B70120E05D
:1023F00030E044EB53E40E94B4317B018C01C60110
:10240000B50121E239EF4EE85CE30E9448330E94B7
:10241000AB33A20191010E944833EB8DFC8D2081EA
:102420003181428153810E94B4316D837E838F83D9
:10243000988720E030E040E050E00E9444331816D6
:102440002CF080E090E0A0E0B0E010C06D817E81D3
:102450008F81988520E030E040E053E40E941832FC
:1024600087FD08C080E090E0A0E0B3E48D839E8308
:10247000AF83B887C801B70121E239EF4EE85CE3CA
:102480000E9448330E941C32A20191010E944833ED
:10249000AF89B88D2D913D914D915C910E94B431E1
:1024A00069877A878B879C8720E030E040E050E0A6
:1024B0000E94443318162CF080E090E0A0E0B0E0D9
:1024C00010C069857A858B859C8520E030E040E0EE
:1024D00053E40E94183287FD08C080E090E0A0E03D
:1024E000B3E489879A87AB87BC87C401B30120E036
:1024F00030E041E053EC0E941832882321F1C401FE
:10250000B3010E941F322B013C0169817A818B81CA
:102510009C810E941F324B015C016D817E818F8105
:1025200098850E941F326B017C0169857A858B85B5
:102530009C850E941F328B019C01C201B401A6013F
:1025400098010E943F18A98DBA8D6D917C9188E603
:1025500091E00E946B34ED85FE85E60FF71FFE8744
:10256000ED87E956F1406CF46D807E808F80988411
:1025700089859A85AB85BC8589839A83AB83BC8327
:10258000D7CE8091B6019091B70101969093B70193
:102590008093B6014090B6015090B70196E049167D
:1025A00051040CF4FFCC6C960FB6F894DEBF0FBE4E
:1025B000CDBFCF91DF911F910F91FF90EF90DF90F2
:1025C000CF90BF90AF909F908F907F906F905F90D3
:1025D0004F903F902F9008952F923F924F925F928D
:1025E0006F927F928F929F92AF92BF92CF92DF9223
:1025F000EF92FF920F931F93DF93CF93CDB7DEB788
:1026000066970FB6F894DEBF0FBECDBF0E949C0F39
:102610001092B7011092B60186E1282E312CB2C07B
:1026200064E170E080E090E02CE630E040E050E0D3
:102630000E940D24698B7A8B8B8B9C8B64E170E0FC
:1026400080E090E02CE630E040E050E00E940D2475
:102650006D877E878F87988B64E070E080E090E0E4
:1026600029E030E040E050E00E940D2469877A873D
:102670008B879C8765E070E080E090E029E030E0A7
:1026800040E050E00E940D246D837E838F83988705
:1026900068E671E080E090E00E94E52369837A8338
:1026A0008B839C8368E671E080E090E00E94E523E4
:1026B0002B013C0163E070E080E090E026E030E038
:1026C00040E050E00E940D244B015C0164E070E0AA
:1026D00080E090E024E130E040E050E00E940D24F2
:1026E0006B017C018D899E89829D8001839D100DE7
:1026F000929D100D112408541E4F69897A898B8987
:102700009C890E945232D8016D937D938D939C9346
:1027100013976D857E858F8598890E945232F801C6
:10272000648375838683978369857A858B859C8589
:102730000E945232D80118966D937D938D939C938D
:102740001B97ED81FE811D96FC93EE931C9789816A
:102750009A811F969C938E931E9751965C924E92EF
:10276000509753969C928E9252975596DC92CE92A9
:1027700054978091B6019091B70101969093B7015B
:102780008093B601A091B601B091B701BE8BAD8B1D
:1027900016970CF445CF66960FB6F894DEBF0FBEC1
:1027A000CDBFCF91DF911F910F91FF90EF90DF9000
:1027B000CF90BF90AF909F908F907F906F905F90E1
:1027C0004F903F902F9008950E9435230E94EC1265
:1027D0000E94B10FFDCF8F929F92AF92BF92CF9286
:1027E000DF92EF92FF920F931F93CF93DF93EC0151
:1027F00049012E193F09841B950B289FF001299F41
:10280000F00D389FF00D11249801241B350BCB01DE
:1028100088199909DC012A9FC0012B9F900D3A9FCE
:10282000900D1124E80FF91F1E161F061CF4A1E0DD
:10283000B0E007C0EF2B19F4A0E0B0E002C0AFEFAA
:10284000BFEF97012A193B09CE01801B910B289FEE
:10285000F001299FF00D389FF00D11249601201BE7
:10286000310BCB018E199F098C01209FC001219F44
:10287000900D309F900D1124E80FF91F1E161F06B2
:102880001CF421E030E007C0EF2B19F420E030E029
:1028900002C02FEF3FEFC50188199909CC19DD0956
:1028A0008C9FF0018D9FF00D9C9FF00D11246A19F3
:1028B0007B094C195D09649FC001659F900D749F51
:1028C000900D1124E80FF91F1E161F061CF441E09D
:1028D00050E007C0EF2B19F440E050E002C04FEF8A
:1028E0005FEFA217B30719F4A417B507A1F0AB2B3C
:1028F00049F4232B19F080E0452B09F481E0282FBF
:1029000030E00BC0232B19F020E030E006C020E0BF
:1029100030E0452B11F421E030E0C901DF91CF9187
:102920001F910F91FF90EF90DF90CF90BF90AF90ED
:102930009F908F900895EF92FF920F931F93E61A46
:10294000F70A481B590BE49EF001E59EF00DF49E3A
:10295000F00D1124081B190B621B730B069FC0019D
:10296000079F900D169F900D1124E80FF91F1E165A
:102970001F061CF421E030E007C0EF2B19F420E023
:1029800030E002C02FEF3FEFC9011F910F91FF9080
:10299000EF90089591E09093230180933C028093FF
:1029A0003D0280933E02089591E09093230180932D
:1029B0003C0260933D0240933E0208951092230131
:1029C000089510922201089580933C0260933D0285
:1029D00040933E020895809300016093010140936B
:1029E0000201089580930001809301018093020108
:1029F00008958093000160930101409302010895BE
:102A0000EF92FF920F931F93CF93DF937C018B0183
:102A10008EE792E060E00E94D529C0E0D0E001504E
:102A200010400EC08EE792E00E94162BF701EC0FCB
:102A3000FD1F8083882319F4CA30D10524F4219620
:102A4000C017D1077CF3CE0DDF1D1882DF91CF9127
:102A50001F910F91FF90EF9008950F931F93182FE0
:102A6000092F0E947A2B10931801009319011F91CE
:102A70000F910895EF92FF920F931F93CF93DF93DF
:102A8000C0911801D09119017C010027F7FC009535
:102A9000102F08C08C2F0E947A2BC801B7010E940A
:102AA000222321971C161D06ACF37398DF91CF915A
:102AB0001F910F91FF90EF900895EF92FF920F9367
:102AC0001F93CF93DF93739AC0E0D0E07C0100277F
:102AD000F7FC0095102F08C08C2F0E947A2BC8019C
:102AE000B7010E942223219680911801909119012B
:102AF0008C179D078CF7DF91CF911F910F91FF905D
:102B0000EF9008952F923F924F925F926F927F9233
:102B10008F929F92AF92BF92CF92DF92EF92FF92ED
:102B20000F931F93DF93CF93CDB7DEB7E0970FB628
:102B3000F894DEBF0FBECDBF98A38F8F7AA369A391
:102B40005CA34BA33EA32DA3CA019C01442737FDE0
:102B50004095542FCA01B9010E944C346D8B7E8B75
:102B60008F8B988FADA1BEA17D010027F7FC00954A
:102B7000102FC801B701A80197010E944C34698B3E
:102B80007A8B8B8B9C8B6D897E898F89988D24E0C5
:102B900030E040E050E00E94A03488279927DC0113
:102BA000821B930BA40BB50B8D879E87AF87B88BC9
:102BB0008BA19CA162E070E00E946B34AA2797FD74
:102BC000A095BA2F2D853E854F855889281B390B36
:102BD0004A0B5B0B89899A89AB89BC89281B390B05
:102BE0004A0B5B0B2D873E874F87588BBC01CD016D
:102BF00024E030E040E050E00E94A034882799278C
:102C0000DC01821B930BA40BB50B8B8F9C8FAD8FBC
:102C1000BE8F8DA19EA162E070E00E946B34AA2756
:102C200097FDA095BA2F2B8D3C8D4D8D5E8D281B69
:102C3000390B4A0B5B0B2B8F3C8F4D8F5E8F8D8931
:102C40009E89AF89B88D281B390B4A0B5B0B2987EE
:102C50003A874B875C87BC01CD0190958095709534
:102C600061957F4F8F4F9F4FA80197010E944C3471
:102C70005B016C016D897E898F89988D0E944C342F
:102C80002EEF3FEF4FEF5FEF0E944C341B012C0102
:102C900029893A894B895C89220F331F441F551FAC
:102CA0002D833E834F8358878D899E89AF89B88D48
:102CB000880F991FAA1FBB1F89839A83AB83BC838C
:102CC0000DA11EA11A8E198EA1E0B0E0B8A7AFA386
:102CD000662477244301C7C0E98DFA8DBF01882798
:102CE00077FD8095982F29893A894B895C890E94C4
:102CF0004C346A0D7B1D8C1D9D1D2D853E854F8599
:102D000058892617370748075907F4F4B801882768
:102D100077FD8095982F2D893E894F89588D0E9487
:102D20004C346DA77EA78FA798ABDC01CB018A0D31
:102D30009B1DAC1DBD1D2B8D3C8D4D8D5E8D2817B3
:102D400039074A075B079CF0498D5A8D4F5F5F4FEB
:102D50005A8F498F8D819E81AF81B885680E791E0B
:102D60008A1E9B1EA60CB71CC81CD91C77C0D60196
:102D7000C5012DA53EA54FA558A9821B930BA40BF9
:102D8000B50BEF8CF8A0498D5A8DE41AF50A69A1AC
:102D90007AA1601B710B29853A854B855C852817C4
:102DA00039074A075B0724F5C7014FA158A521E061
:102DB00030E00E949C300115110559F069A17AA1FB
:102DC000600F711FC7014FA158A521E030E00E949C
:102DD0009C300150104089819A81AB81BC81280EC2
:102DE000391E4A1E5B1EA20CB31CC41CD51C3BC062
:102DF000C7014FA158A521E030E00E949C30011589
:102E0000110559F069A17AA1600F711FC7014FA187
:102E100058A521E030E00E949C30A98DBA8D119612
:102E2000BA8FA98F2D813E814F815885620E731E06
:102E3000841E951E0150104089819A81AB81BC810E
:102E4000280E391E4A1E5B1ED401C301820D931D3C
:102E5000A41DB51DA80EB91ECA1EDB1EAFA1B8A5C4
:102E60001296B8A7AFA317FD08C0E98DFA8D2BA164
:102E70003CA12E173F070CF02FCF4DA15EA1452B93
:102E800091F44BA15CA1440F551F4F5F5F4F8F8D95
:102E900098A1ABA1BCA18A1B9B0B69A17AA121E0DF
:102EA00030E00E949C30E0960FB6F894DEBF0FBE73
:102EB000CDBFCF91DF911F910F91FF90EF90DF90E9
:102EC000CF90BF90AF909F908F907F906F905F90CA
:102ED0004F903F902F900895EF92FF920F931F9382
:102EE0008C017B01609100017091010180910201D0
:102EF0000E947830C801B7010E9493301F910F9152
:102F0000FF90EF9008952F923F924F925F926F92B1
:102F10007F928F929F92AF92BF92CF92DF92EF9269
:102F2000FF920F931F93CF93DF934C015B011A0124
:102F300039012617370724F414014A013B015901CE
:102F4000C401B5010E949330E101C819D909D7FD28
:102F500004C0F1E04F2E512C06C0D095C195DF4F33
:102F600044244A94542C83010A191B0939F00CC0DB
:102F7000840C951CC401B5010E94933021978FEFFA
:102F8000CF3FD807A9F768C0209759F40894A11C2F
:102F9000B11CC401B5010E94933001501040B1F73B
:102FA0005BC0C017D10769F4840C951C0894A11C60
:102FB000B11CC401B5010E94933001501040A1F72B
:102FC0004BC06E01EE24D7FCE094FE2C9801442700
:102FD00037FD4095542FC017D107ECF4C601772771
:102FE00066270E947E34790180E090E010C0EC01F9
:102FF000CE0DDF1D8C179D0710F0840C951C0894D6
:10300000A11CB11CC401B5010E949330CE01015036
:10301000104069F71DC0C90177276627A7019601EF
:103020000E947E34790180E090E010C08C010E0D8A
:103030001F1D8017910718F00894A11CB11C840C67
:10304000951CC401B5010E949330C801219771F706
:10305000C101B3010E949330DF91CF911F910F9175
:10306000FF90EF90DF90CF90BF90AF909F908F90A8
:103070007F906F905F904F903F902F900895AF9208
:10308000BF92CF92DF92EF92FF920F931F938C012A
:103090007B016A01590160910001709101018091E9
:1030A00002010E947830C801B701A60195010E9473
:1030B00083171F910F91FF90EF90DF90CF90BF90FB
:1030C000AF9008958F929F92AF92BF92CF92DF926E
:1030D000EF92FF920F931F93CF93DF935C01EB016D
:1030E0006A010894C108D1081C141D040CF04CC0DE
:1030F0004901089481089108181419040CF044C07F
:1031000080912201882331F16091000170910101C9
:10311000809102010E9478307601EA0CFB1CC50107
:10312000BE01A7019E010E943F1884010C0F1D1FC4
:10313000C501BE01A50198010E943F18C501B80153
:10314000A70198010E943F18C701BE01A70198017D
:103150000E943F18809123018823B1F060913C02C6
:1031600070913D0280913E020E94783021968EEF50
:103170009FEFC80ED91E880E991EC5010196BE018B
:10318000A60194010E949C30DF91CF911F910F9175
:10319000FF90EF90DF90CF90BF90AF909F908F9077
:1031A00008950E94621808952F923F924F925F9265
:1031B0006F927F928F929F92AF92BF92CF92DF9247
:1031C000EF92FF920F931F93DF93CF93CDB7DEB7AC
:1031D00028970FB6F894DEBF0FBECDBF9A838983C0
:1031E0007C836B835E834D831901280137018091B5
:1031F0002201882301F16091000170910101809109
:1032000002010E94783089819A816B817C814D8195
:103210005E8191010E9483178D819E81B101A80179
:1032200097010E948317C801B70149815A812B81F8
:103230003C810E94831780912301882309F476C082
:1032400060913C0270913D0280913E020E94783074
:1032500029813A818D819E81281739072CF4241504
:10326000350514F449014DC04201ED81FE81E4159C
:10327000F5050CF046C04F0144C02B813C8122155E
:10328000330534F4261537051CF438872F8322C004
:1032900078866F8226143704ECF438862F821AC0A1
:1032A000C4016F81788549815A812B813C810D81D0
:1032B0001E817101620153010E94EB13892B29F0D9
:1032C000C4016F8178850E9493308F819885019623
:1032D00098878F83EB81FC812E163F062CF46E16A7
:1032E0007F0614F4CF0105C0C301621473040CF40B
:1032F000C1012F8138852817390794F20894811C61
:10330000911C89819A81ED81FE81E817F9071CF4EF
:10331000481659063CF0C2012D813E8142165306E3
:103320000CF4C901881699060CF4A7CF28960FB69D
:10333000F894DEBF0FBECDBFCF91DF911F910F91EB
:10334000FF90EF90DF90CF90BF90AF909F908F90C5
:103350007F906F905F904F903F902F900895EF92E5
:10336000FF920F931F930E94D4181F910F91FF900B
:10337000EF9008952F923F924F925F926F927F92BB
:103380008F929F92AF92BF92CF92DF92EF92FF9275
:103390000F931F93DF93CF9300D000D00F92CDB740
:1033A000DEB71C017B836A833A0129011D830C83EC
:1033B0004701809122018983809123018823E1F0D4
:1033C00010922201C1010E94D418C301B2014C81A4
:1033D0005D819401860175010E94D418C1016A8142
:1033E0007B814C815D8194010E94D418E981EE2398
:1033F00019F081E080932201809122018823E1F07D
:10340000C1016A817B81A30192010E943F18C3011F
:10341000B2014C815D8194010E943F188C819D8195
:10342000B401A60195010E943F18C601B501A10192
:103430002A813B810E943F180F900F900F900F90B0
:103440000F90CF91DF911F910F91FF90EF90DF9040
:10345000CF90BF90AF909F908F907F906F905F9034
:103460004F903F902F9008952F923F924F925F92EE
:103470006F927F928F929F92AF92BF92CF92DF9284
:10348000EF92FF920F931F93DF93CF93CDB7DEB7E9
:10349000E2970FB6F894DEBF0FBECDBF9CA38BA3FF
:1034A0007EA36DA358A74FA369012A019201442767
:1034B00037FD4095542FCA01B9010E944C346D8BE1
:1034C0007E8B8F8B988F76010027F7FC0095102F4D
:1034D000C801B701A80197010E944C34698B7A8B0F
:1034E0008B8B9C8B6D897E898F89988D24E030E051
:1034F00040E050E00E94A03488279927DC01821B1D
:10350000930BA40BB50B8D879E87AF87B88BC20139
:1035100062E070E00E946B34AA2797FDA095BA2F55
:103520004D845E846F847888481A590A6A0A7B0A37
:1035300029893A894B895C89421A530A640A750AB7
:103540004D865E866F86788ACA01B90124E030E034
:1035500040E050E00E94A03488279927DC01821BBC
:10356000930BA40BB50B8F8F98A3A9A3BAA3C60185
:1035700062E070E00E946B34AA2797FDA095BA2FF5
:103580004F8C58A069A07AA0481A590A6A0A7B0A87
:103590004F8E58A269A27AA22D893E894F89588DF3
:1035A000421A530A640A750A49865A866B867C86D3
:1035B000CA01B90190958095709561957F4F8F4FA5
:1035C0009F4FA80197010E944C344B015C016D890B
:1035D0007E898F89988D0E944C342EEF3FEF4FEFFC
:1035E0005FEF0E944C342B013C0189899A89AB8999
:1035F000BC89880F991FAA1FBB1F8D839E83AF8331
:10360000B8872D893E894F89588D220F331F441F5B
:10361000551F29833A834B835C83EE24FF24870163
:103620001AA619A6C4C04BA15CA189A59AA5480FEA
:10363000591F5E8F4D8FADA1BEA1AC0DBD1DBC8FBE
:10364000AB8FCA01BD010E949330E9A5FAA5EF2B0B
:1036500019F4C114D10411F12BA13CA149A55AA51B
:10366000241B350B3A8F298F2DA03EA02C183D0826
:10367000C901B1010E94933089A59AA5892B71F0E7
:10368000C114D10459F08D8D9E8DB1010E949330EB
:10369000898D9A8D6B8D7C8D0E949330A9A5BAA5DA
:1036A000BD01882777FD8095982F29893A894B8914
:1036B0005C890E944C34680D791D8A1D9B1D2D85E7
:1036C0003E854F8558892617370748075907F4F470
:1036D000B601882777FD8095982F2D893E894F89DF
:1036E000588D0E944C346FA778AB89AB9AABDC0144
:1036F000CB01880D991DAA1DBB1D2F8D38A149A195
:103700005AA1281739074A075B079CF049A55AA513
:103710004F5F5F4F5AA749A78D819E81AF81B885C2
:10372000E80EF91E0A1F1B1F8E0C9F1CA01EB11E47
:103730003EC0D501C4012FA538A949A95AA9821BA9
:10374000930BA40BB50B0894C108D10829813A81C9
:103750004B815C81240D351D461D571D49845A84BB
:103760006B847C84481659066A067B063CF4290162
:103770003A01820E931EA41EB51E19C089A59AA5F2
:1037800001969AA789A74D805E806F807884E40CAB
:10379000F51C061D171D29013A01D801C701820F2A
:1037A000931FA41FB51F880E991EAA1EBB1ED7FC0F
:1037B00008C029A53AA54FA158A5421753070CF0F8
:1037C00032CFE2960FB6F894DEBF0FBECDBFCF91D9
:1037D000DF911F910F91FF90EF90DF90CF90BF90FE
:1037E000AF909F908F907F906F905F904F903F90A1
:1037F0002F900895CF92DF92EF92FF920F931F9335
:10380000CF93DF93EC018B017A0169018091230151
:10381000882391F060913C0270913D0280913E02BC
:103820000E947830A701415050409601215030400D
:10383000CE01B8010E94821580912201882371F087
:103840006091000170910101809102010E94783025
:10385000CE01B801A70196010E94341ADF91CF91E1
:103860001F910F91FF90EF90DF90CF9008959A01F4
:103870000E94FA1B089582E492E00E94591F882357
:1038800081F0809142029091430290931B018093BA
:103890001A01809144029091450290931D018093FA
:1038A0001C01089560913C0270913D0280913E029E
:1038B0000E9478300E948A30089510923C02109243
:1038C0003D0210923E020E94521C089580933C02D9
:1038D00060933D0240933E020E94521C08958093E3
:1038E0003C0280933D0280933E020E94521C089548
:1038F000CF92DF92EF920F931F939C01FB01CA01BD
:10390000B901AF0100910001109101012091020164
:10391000C0903C02D0903D02E0903E020E94D9301F
:103920001F910F91EF90DF90CF900895CF92DF928B
:10393000EF920F931F939C01FB01842FB901AF01FC
:10394000009100011091010120910201C0903C0200
:10395000D0903D02E0903E020E94B7301F910F913F
:10396000EF90DF90CF900895EF92FF920F931F9307
:1039700080917302882359F48EE792E040E855E283
:1039800060E070E00E941A2B81E08093730283E56F
:1039900092E060E270E00E94001581E080935202A4
:1039A000809153028C3709F0BBC18091540288305A
:1039B00009F477C08930A0F4843009F447C0853019
:1039C00040F4823099F18330F0F5813009F0A8C1DC
:1039D00020C0863009F44AC0873008F051C03CC08E
:1039E0008C3009F4C2C08D3038F48A3009F48FC0AD
:1039F0008B3008F0ABC06CC08E3009F41CC18E3027
:103A000008F4C6C08F3009F435C1803109F088C18F
:103A10005EC1809156022091570290915502909379
:103A2000000180930101209302017AC18091560226
:103A3000209157029091550290933C0280933D0251
:103A400020933E026DC10E94521C6AC180915502B2
:103A500090E00E942D1564C19091560280E0209163
:103A60005502820F911D0E943A155AC1909156023B
:103A700080E020915502820F911D0E945D1550C17A
:103A80009091560280E0309155027091580260E0AA
:103A900020915702620F711D830F911D0E946C17B8
:103AA0003FC130915A0220E080915902280F311D08
:103AB0009091560280E0509155027091580260E05A
:103AC00040915702640F711D850F911DA901CFC050
:103AD0009091560280E0F09155027091580260E09A
:103AE00020915702620F711D50915A0240E02091BF
:103AF0005902420F511D30915C0220E0E0915B02BF
:103B00002E0F311D8F0F911D0E94621809C19091D7
:103B1000560280E0F09155027091580260E02091C9
:103B20005702620F711D50915A0240E020915902D4
:103B3000420F511D30915C0220E0E0915B022E0F9C
:103B4000311D8F0F911D0E943F18EAC070915602DF
:103B500060E080915502680F711D8091590290E0DC
:103B6000409157020E94961CDBC09091560280E063
:103B7000309155027091580260E020915702620F17
:103B8000711D830F911D4CE552E00E94781CC8C046
:103B90000E943B1C62E070E080E090E00E942223E3
:103BA0008EE792E06CE70E94D52962E070E080E049
:103BB00090E00E9422238EE792E060911A010E9419
:103BC000D52962E070E080E090E00E9422236091BD
:103BD0001A0170911B01672F770F770B8EE792E028
:103BE0000E94D52962E070E080E090E00E942223EC
:103BF0008EE792E060911C010E94D52962E070E09E
:103C000080E090E00E94222360911C0170911D01D0
:103C1000672F770F770B8EE792E00E94D52962E03D
:103C200070E080E090E00E9422238EE792E060E066
:103C30000E94D52975C09091560280E0F0915502FE
:103C40007091580260E020915702620F711D5091EF
:103C50005A0240E020915902420F511D30915C02FE
:103C600020E0E0915B022E0F311D8F0F911D0E940D
:103C7000FA1B56C09091560280E020915502820FA7
:103C8000911D90934702809346029091580280E0E4
:103C900020915702820F911D909349028093480210
:103CA00090915A0280E020915902820F911D9093C9
:103CB0004B0280934A0290915C0280E020915B026B
:103CC000820F911D90934D0280934C0229C0109158
:103CD000560200E080915502080F111D10934F020B
:103CE00000934E02F0915802E0E080915702E80FF5
:103CF000F11DF0935102E0935002609148027091DF
:103D0000490240914A0250914B0220914C0230915D
:103D10004D0280914602909147027F010E94D41883
:103D20001F910F91FF90EF9008952F923F924F9225
:103D30005F926F927F928F929F92AF92BF92CF923B
:103D4000DF92EF92FF920F931F933B014C011901F9
:103D50002A01C801B701A40193010E94B3310E9456
:103D60001F327B018C01C601B501A20191010E94A5
:103D7000B3310E941F32CB01889FB001899F700D23
:103D8000989F700D1124EE9C9001EF9C300DFE9CCD
:103D9000300D1124620F731F882777FD8095982FAF
:103DA0000E9452320E94B5331F910F91FF90EF9005
:103DB000DF90CF90BF90AF909F908F907F906F904B
:103DC0005F904F903F902F9008959C01F999FECFFE
:103DD00032BD21BDF89A80B508959C01F999FECFB6
:103DE00032BD21BD60BD0FB6F894FA9AF99A0FBEA4
:103DF0000895809179008093A1020895839A819A11
:103E00008B9A89988A98829A80E000008F5F82332B
:103E1000E1F78298809882E680937C0080E0000041
:103E20008F5F883CE1F780E000008F5F883CE1F71E
:103E300080E000008F5F883CE1F780E000008F5F4A
:103E4000883CE1F780E000008F5F883CE1F78091DB
:103E50007A00806480937A000895829A809A8A9A80
:103E600088988B98839A80E000008F5F8233E1F717
:103E70008398819883E680937C0080E000008F5FC8
:103E8000883CE1F780917A00806480937A000895FD
:103E900030E00AC000009F5F9F3FE1F72F5F2D30A9
:103EA00011F090E0F7CF3F5F381710F420E0F9CF22
:103EB00008950F931F93DF93CF93CDB7DEB760972D
:103EC0000FB6F894DEBF0FBECDBF8C01809180028B
:103ED000803160F18091800290E0A0E0B0E08983C1
:103EE0009A83AB83BC838091A10290E0A0E0B0E014
:103EF0008D839E83AF83B887CE010996BE016F5F25
:103F00007F4F45E852E00E949E278985F801808313
:103F100011828D85828313821092A20210928402F4
:103F200010928202109281021092A30281E06096A8
:103F30000FB6F894DEBF0FBECDBFCF91DF911F91BA
:103F40000F9108950F931F93DF93CF93CDB7DEB7F3
:103F500060970FB6F894DEBF0FBECDBF8C01809185
:103F6000A302882329F18091830290E0A0E0B0E0D1
:103F700089839A83AB83BC8380917F0290E0A0E029
:103F8000B0E08D839E83AF83B887CE010996BE01D2
:103F90006F5F7F4F45E852E00E949E278985F801B8
:103FA000808311828D85828313821092A30281E027
:103FB00060960FB6F894DEBF0FBECDBFCF91DF91F4
:103FC0001F910F910895CF92DF92EF920F931F935D
:103FD000DF93CF93CDB7DEB7C057D0400FB6F8947C
:103FE000DEBF0FBECDBFDE019996E0E9F1E088E1CA
:103FF00001900D928150E1F7DE01AF5BBF4FE8E722
:10400000F1E088E101900D928150E1F7DE01A75ABD
:10401000BF4FE0E6F1E088E101900D928150E1F7B9
:10402000CE01875A9F4FBE016F5B7F4F45E852E03C
:104030000E941B25DE011196EDE5F1E083E0019081
:104040000D928150E1F7DE011496EAE5F1E083E09C
:1040500001900D928150E1F784E291E062E170E01D
:1040600045E050E009811A812B81CC80DD80EE8013
:104070000E94183084E190E06CE370E046E050E08C
:1040800009811A812B81CC80DD80EE800E94EB2B90
:104090001092A3028091A3028823E1F3809183020E
:1040A00090E0A0E0B0E0898B9A8BAB8BBC8B8091C9
:1040B0007F0290E0A0E0B0E08D8B9E8BAF8BB88F3D
:1040C00084E190E06CE370E046E050E00C811D81FB
:1040D0002E816801E22E0E94EB2B20E00CC0000034
:1040E0008F5F8F3FE1F79F5F9D3011F080E0F7CF4A
:1040F0002F5F2A3F11F090E0F9CF8CE390E064E16C
:1041000070E046E050E009811A812B81CC80DD808F
:10411000EE800E94EB2B1092A3028091A3028823D1
:10412000E1F38091830290E0A0E0B0E0898F9A8F64
:10413000AB8FBC8F80917F0290E0A0E0B0E08D8FCC
:104140009E8FAF8FB8A38CE390E064E170E046E00F
:1041500050E00C811D812E816801E22E0E94EB2B24
:1041600020E00CC000008F5F8F3FE1F79F5F9D3024
:1041700011F080E0F7CF2F5F2A3F11F090E0F9CFE8
:104180008AE590E063E770E046E050E009811A813B
:104190002B81CC80DD80EE800E94EB2B1092A3025D
:1041A0008091A3028823E1F38091830290E0A0E054
:1041B000B0E089A39AA3ABA3BCA380917F0290E057
:1041C000A0E0B0E08DA39EA3AFA3B8A78AE590E0DE
:1041D00063E770E046E050E00C811D812E816801AC
:1041E000E22E0E94EB2BDE011796E7E5F1E083E07B
:1041F00001900D928150E1F7DE011A96E4E5F1E0BD
:1042000083E001900D928150E1F76A857B858C8572
:104210000E94B32C87E391E06FE070E04FE050E044
:104220000F8118852985CA84DB84EC840E941830AC
:1042300087E491E064E170E049E150E00F81188586
:104240002985CA84DB84EC840E941830CE018996CB
:10425000BE016F5E7F4F45E852E00E941B25F99931
:10426000FECF8CE190E092BD81BD84E180BD0FB6B0
:10427000F894FA9AF99A0FBE80E090E065E872E04F
:104280004CE150E02DEE3EE10E94973120E00EC05F
:1042900000008F5F8F3FE1F79F5F9D3011F080E05E
:1042A000F7CF2F5F2A3F11F420E010C090E0F7CF46
:1042B00000008F5F8F3FE1F79F5F9D3011F080E03E
:1042C000F7CF2F5F2A3F11F420E00EC090E0F7CF28
:1042D00000008F5F8F3FE1F79F5F9D3011F080E01E
:1042E000F7CF2F5F2A3F11F090E0F9CFCE010D9666
:1042F0000E94A21F1092A30280E0C059DF4F0FB6A8
:10430000F894DEBF0FBECDBFCF91DF911F910F910B
:10431000EF90DF90CF9008951092A2021092840245
:104320001092830210927F021092A30210928202D6
:10433000109281028FE880937A0082E084BD81E050
:1043400080936E007894F999FECF8CE190E092BD55
:1043500081BDF89A80B5843119F00E94E31F089559
:1043600085E892E060E070E04CE150E025EE3EE14F
:104370000E947B310895AF92BF92CF92DF92EF926D
:104380000F931F93DF93CF93CDB7DEB7AE970FB6E2
:10439000F894DEBF0FBECDBF80917900809380027C
:1043A00080918002803108F471C0809181029091E7
:1043B0008202019690938202809381029091800202
:1043C0008091A202891740F4809180028093A2021A
:1043D0008091A10280938402809181029091820257
:1043E0008151974208F46FC0F999FECF8CE190E0BB
:1043F00092BD81BD87E180BD0FB6F894FA9AF99A13
:104400000FBEDE011196EBEAF1E083E001900D9220
:104410008150E1F7DE011496E8EAF1E083E00190D3
:104420000D928150E1F76C817D818E810E94B32CC9
:1044300087E0A82EB12CAC0EBD1EC5016CE870E063
:1044400048E250E00E945E31C50160E070E042E366
:1044500050E009811A812B81CC80DD80EE800E94A2
:104460001830C5016AE770E048E250E00E945E3112
:10447000C50160E070E04CE350E009811A812B81B6
:10448000CC80DD80EE800E941830FFCF8091A202A8
:104490008031C8F080918102909182024F9798F00C
:1044A0008091A202809383028091840280937F0294
:1044B0001092A20210928402109282021092810243
:1044C00081E08093A302AE960FB6F894DEBF0FBED4
:1044D000CDBFCF91DF911F910F91EF90DF90CF90E3
:1044E000BF90AF900895209176023091770240916D
:1044F000780250917902B901CA010895E1ECF0E027
:1045000080818F7E80838081877F8083769A6E9A78
:104510006D9878940895DF93CF9300D00F92CDB724
:10452000DEB7282F1982F89476981B821A8205C06C
:104530008A819B8101969B838A838A819B818A35AC
:104540009105B0F3198230E01CC08981A90102C035
:10455000559547958A95E2F740FF02C0769A01C0CB
:1045600076981B821A8205C08A819B8101969B8363
:104570008A838A819B818A359105B0F389818F5F17
:1045800089838981883008F3769A1B821A8205C054
:104590008A819B8101969B838A838A819B818A354C
:1045A0009105B0F378940F900F900F90CF91DF9119
:1045B0000895DF93CF9300D000D0CDB7DEB7198236
:1045C0001A82F8946599FECF1C821B8205C08B81EC
:1045D0009C8101969C838B838B819C818D97B8F302
:1045E000198218C01C821B8205C08B819C81019698
:1045F0009C838B838B819C818A359105B0F38A8162
:1046000086958A83659B03C08A8180688A838981B5
:104610008F5F89838981883028F31C821B8205C0C3
:104620008B819C8101969C838B838B819C818D9750
:10463000B8F378948A810F900F900F900F90CF91DC
:10464000DF9108959B01AC010AC01092A4028091F1
:10465000A4028730E1F721503040404050402115FE
:1046600031054105510589F708956F9A779A749A33
:104670000E942A2D0E942B280E948C210E940F2527
:1046800008951F920F920FB60F9211242F933F930C
:104690004F935F936F937F938F939F93AF93BF934A
:1046A000EF93FF9380917402882319F0813051F4C5
:1046B00005C0809179000E94BB2104C080917900DF
:1046C0000E94F91EFF91EF91BF91AF919F918F9141
:1046D0007F916F915F914F913F912F910F900FBEFE
:1046E0000F901F9018951F920F920FB60F921124E2
:1046F0002F933F934F935F936F937F938F939F93EA
:10470000AF93BF93EF93FF9380917A028730B1F418
:104710008091760290917702A0917802B09179020F
:104720000196A11DB11D8093760290937702A0930C
:104730007802B093790210927A0205C080917A02D1
:104740008F5F80937A028091A402873028F4809151
:10475000A4028F5F8093A402809175028230F9F4E5
:1047600010927502809174028F5F80937402809121
:104770007402823011F410927402809174028823C2
:1047800019F0813089F403C00E94FE1E02C00E940D
:104790002D1F80917A00806480937A0005C08091FB
:1047A00075028F5F80937502FF91EF91BF91AF917A
:1047B0009F918F917F916F915F914F913F912F9139
:1047C0000F900FBE0F901F901895EF92FF920F93CE
:1047D0001F937B018C01611571058105910529F4F9
:1047E00020E030E040E050E011C00E944E31AA27A6
:1047F00097FDA095BA2FBC01CD01A80197010E9499
:10480000A034AC01CB01DA019C01AD01B901CA01B0
:104810001F910F91FF90EF900895EF92FF920F93E9
:104820001F937B018C01621773078407950764F45B
:10483000261B370B480B590BCA01B9010E94E5230F
:10484000E60EF71E081F191FB701C8011F910F912F
:10485000FF90EF900895009711F00E945331089552
:1048600080917B0208954F925F927F928F929F92E8
:10487000AF92BF92CF92DF92EF92FF920F931F936E
:10488000DF93CF93CDB7DEB7C451D2400FB6F894C3
:10489000DEBF0FBECDBF6C01962E842EF89405EAC4
:1048A00012E0C601B80147E050E00E946D31009768
:1048B00059F5D80117968C9190E0A0E0B0E0D82E81
:1048C000CC24BB24AA24F801808590E0A0E0B0E0CD
:1048D000DC0199278827A82AB92ACA2ADB2A8285D7
:1048E00090E0A0E0B0E0A82AB92ACA2ADB2A818594
:1048F00090E0A0E0B0E0BA2FA92F982F8827A82A2F
:10490000B92ACA2ADB2A0AC0F4E00E371F0719F0B9
:10491000055F1F4FC6CFAA24BB2465017E01089402
:10492000E11CF11CC701B601A50123E132E00E94A0
:10493000F428698170E00A8110E0069F2001079F3A
:10494000500C169F500C1124892D90E0615070403E
:10495000680F791F0E94632C882D90E00150104051
:10496000080F191FB8010E948B2C882499248E01EE
:104970000C5F1F4F90E07E2CEF2C36C0D8018C913D
:104980008093C70611968C9111978093C606129654
:104990008C918093C506CC5EDD4F9883C451D24084
:1049A0000E94482BCC5EDD4F9881C451D2409F5F5E
:1049B000903B18F40D5F1F4F14C080E192E0A0E01F
:1049C000B0E0A80EB91ECA1EDB1E872D9E2DB601B3
:1049D000A50123E132E00E94F428872D9E2D8C0151
:1049E00090E00894811C911C8414950438F278940A
:1049F000CC5EDD4F0FB6F894DEBF0FBECDBFCF91BA
:104A0000DF911F910F91FF90EF90DF90CF90BF90BB
:104A1000AF909F908F907F905F904F90089585EA20
:104A200092E060E070E040E254E00E94782981E08A
:104A300080937B0208952F923F924F925F926F92E4
:104A40007F928F929F92AF92BF92CF92DF92EF921E
:104A5000FF920F931F93DF93CF93CDB7DEB7EC9701
:104A60000FB6F894DEBF0FBECDBF9AAF89AF5CAF73
:104A70004BAFDB012D913D914D915C9113972DAB87
:104A80003EAB4FAB58AF50962D913D914D915C91FF
:104A9000539729AB3AAB4BAB5CAB8DA99EA9AFA9A1
:104AA000B8AD821B930BA40BB50B8DA79EA7AFA728
:104AB000B8ABDB011C962D913D914D915C911F97F8
:104AC00029A73AA74BA75CA754962D913D914D91EC
:104AD0005C9157972DA33EA34FA358A789A59AA5EC
:104AE000ABA5BCA5821B930BA40BB50B89A39AA302
:104AF000ABA3BCA3DB0118962D913D914D915C9128
:104B00001B972D8F3E8F4F8F58A314962D913D915B
:104B10004D915C911797298F3A8F4B8F5C8F8DA1A8
:104B20009EA1AFA1B8A5821B930BA40BB50B8D8BD7
:104B30009E8BAF8BB88F2D8D3E8D4F8D58A189A93F
:104B40009AA9ABA9BCA9281B390B4A0B5B0B6D8931
:104B50007E898F89988D0E944C347B018C0169A1DC
:104B60007AA18BA19CA12DA53EA54FA558A90E9475
:104B70004C34E60EF71E081F191FABADBCAD58969E
:104B8000ED92FD920D931C935B97E114F1040105E6
:104B9000110519F42FEF3FEFB7C1A9ADBAAD2D91B3
:104BA0003D914D915C911397298B3A8B4B8B5C8B8C
:104BB00050966D907D908D909C90539759016A010D
:104BC000A618B708C808D90818962D913D914D919F
:104BD0005C911B972D873E874F87588B19012A01BF
:104BE0002618370848085908C201B1012D893E89A5
:104BF0004F89588D0E944C347B018C01C601B50150
:104C000029A13AA14BA15CA10E944C34E60EF71EEB
:104C1000081F191FEBADFCADE082F1820283138304
:104C200029A93AA94BA95CA98D8D9E8DAF8DB8A1FC
:104C3000281B390B4A0B5B0B29873A874B875C870C
:104C4000CA01B901A60195010E944C347B018C0177
:104C5000C201B1012DA53EA54FA558A90E944C3413
:104C6000E60EF71E081F191FABADBCAD1496ED92F2
:104C7000FD920D931C931797C401B3012DA93EA972
:104C80004FA958AD0E944C347B018C0169897A8907
:104C90008B899C8929A93AA94BA95CA90E944C340B
:104CA000E61AF70A080B190BC801B70129A53AA59E
:104CB0004BA55CA50E944C345B016C016D857E8523
:104CC0008F85988929A93AA94BA95CA90E944C34DF
:104CD0007B018C01C401B3012D8D3E8D4F8D58A1F8
:104CE0000E944C34E61AF70A080B190BC801B701E9
:104CF000298D3A8D4B8D5C8D0E944C34A60EB71ECB
:104D0000C81ED91E69897A898B899C892D8D3E8D13
:104D10004F8D58A10E944C347B018C016D857E859E
:104D20008F8598892DA93EA94FA958AD0E944C3472
:104D3000E61AF70A080B190BC801B7012DA13EA10D
:104D40004FA158A50E944C34A60EB71EC81ED91EEE
:104D5000EBADFCADA086B186C286D386A9ADBAAD57
:104D600014962D913D914D915C9117972D833E8323
:104D70004F83588754966D907D908D909C90579757
:104D800059016A01A618B708C808D9081C962D91C0
:104D90003D914D915C911F9729833A834B835C83AE
:104DA00019012A012618370848085908C201B1011B
:104DB0002D893E894F89588D0E944C347B018C018E
:104DC000C601B50129A13AA14BA15CA10E944C34B6
:104DD000E60EF71E081F191FEBADFCADE486F58645
:104DE00006871787C601B50129853A854B855C85FD
:104DF0000E944C347B018C01C201B1012DA53EA55E
:104E00004FA558A90E944C34E60EF71E081F191F23
:104E1000ABADBCAD5096ED92FD920D931C935397A4
:104E2000C401B3012DA93EA94FA958AD0E944C342D
:104E30007B018C016D817E818F81988529A93AA99A
:104E40004BA95CA90E944C34E61AF70A080B190B0F
:104E5000C801B70129A53AA54BA55CA50E944C3411
:104E60005B016C0169817A818B819C8129A93AA9B6
:104E70004BA95CA90E944C347B018C01C401B30195
:104E80002D8D3E8D4F8D58A10E944C34E61AF70AA5
:104E9000080B190BC801B701298D3A8D4B8D5C8D1C
:104EA0000E944C34A60EB71EC81ED91E6D817E818D
:104EB0008F8198852D8D3E8D4F8D58A10E944C3449
:104EC0007B018C0169817A818B819C812DA93EA90E
:104ED0004FA958AD0E944C34E61AF70A080B190B7B
:104EE000C801B7012DA13EA14FA158A50E944C3485
:104EF000A60EB71EC81ED91EEBADFCADA48AB58A9E
:104F0000C68AD78A20E030E0C901EC960FB6F89443
:104F1000DEBF0FBECDBFCF91DF911F910F91FF90EC
:104F2000EF90DF90CF90BF90AF909F908F907F9049
:104F30006F905F904F903F902F9008952F923F92E7
:104F40004F925F926F927F928F929F92AF92BF9299
:104F5000CF92DF92EF92FF920F931F93CF93DF9345
:104F60001C012B01EA01688C798C8A8C9B8C611462
:104F700071048104910411F48FEF5AC0FB01608128
:104F8000718182819381288139814A815B810E946C
:104F90004C347B018C01F201A480B580C680D7809F
:104FA0002C813D814E815F81C601B5010E944C3448
:104FB000E60EF71E081F191F688579858A859B856F
:104FC0006E0D7F1D801F911FA40193010E94A034CC
:104FD000F1012083318342835383F2016081718127
:104FE000828193812C853D854E855F850E944C345E
:104FF0007B018C01288939894A895B89C601B50101
:105000000E944C34E60EF71E081F191F6C897D891B
:105010008E899F896E0D7F1D801F911FA4019301B2
:105020000E94A034F101248335834683578380E0B6
:10503000DF91CF911F910F91FF90EF90DF90CF9074
:10504000BF90AF909F908F907F906F905F904F90A8
:105050003F902F9008952398259A249A229A219A76
:10506000209A2D98000000002D9A289A2C9A8CE501
:105070008CBD81E08DBD0895AC012C9884E88EBD77
:105080000DB407FEFDCF1EBC0DB407FEFDCF1EBC48
:105090000DB407FEFDCF1EBC0DB407FEFDCF20E012
:1050A00030E0FA01E20FF31F80818EBD0DB407FEE0
:1050B000FDCF2F5F3F4F82E02031380791F72C9AC8
:1050C0000895AC012C9884ED8EBD0DB407FEFDCF84
:1050D0001EBC0DB407FEFDCF1EBC0DB407FEFDCFF8
:1050E0001EBC0DB407FEFDCF8FEF8EBD0DB407FEC5
:1050F000FDCF20E030E09FEF9EBD0DB407FEFDCF59
:105100008EB5FA01E20FF31F80832F5F3F4F82E0DD
:105110002031380789F72C9A08952C9884E88EBDA1
:105120000DB407FEFDCF1EBC0DB407FEFDCF1EBCA7
:105130000DB407FEFDCF1EBC0DB407FEFDCF80E011
:1051400090E02FEF2EBD0DB407FEFDCF019632E0AB
:1051500080319307B9F72C9A089508958EBD0DB448
:1051600007FEFDCF08952C9A2C9887E58EBD0DB4CF
:1051700007FEFDCF1EBC0DB407FEFDCF8EB52C9AE9
:10518000881F8827881F08950F931F93CF93DF935D
:105190008C01EB010E948D28C8010E943C282C98AC
:1051A00083E88EBD0DB407FEFDCFCE0126E09695B7
:1051B00087952A95E1F78EBD0DB407FEFDCF9E01C0
:1051C000220F220F2EBD0DB407FEFDCF1EBC0DB465
:1051D00007FEFDCF2C9A0E94B3288823E1F3DF91CC
:1051E000CF911F910F9108958F929F92AF92BF928E
:1051F000CF92DF92EF92FF920F931F93CF93DF93A3
:105200004C017A018B01E901CB01BA0120E132E0C6
:1052100040E050E00E947E3459016A01C601B501A8
:1052200020E132E040E050E00E944C34E61AF70AF8
:10523000080B190B0E948D282C9888E68EBD0DB4A2
:1052400007FEFDCFD601C50146E0B695A795979517
:1052500087954A95D1F78EBD0DB407FEFDCFBB27CC
:10526000A12F902F8F2D2A2D220F220F282B2EBDFC
:105270000DB407FEFDCFEEBC0DB407FEFDCF8FEFE2
:105280008EBD0DB407FEFDCF8EB58FEF8EBD0DB474
:1052900007FEFDCF8EB58FEF8EBD0DB407FEFDCF9F
:1052A0008EB58FEF8EBD0DB407FEFDCF8EB520E01D
:1052B00030E09FEF0CC09EBD0DB407FEFDCF8EB554
:1052C000F401E20FF31F808300002F5F3F4F2C1784
:1052D0003D0788F32C9ADF91CF911F910F91FF909A
:1052E000EF90DF90CF90BF90AF909F908F900895F8
:1052F000EF92FF920F931F93CF93DF937C01EB010B
:105300008A010E948D282C9888E68EBD0DB407FE78
:10531000FDCFCE0156E0969587955A95E1F78EBD63
:105320000DB407FEFDCF9E01220F220F2EBD0DB43E
:1053300007FEFDCF1EBC0DB407FEFDCF8FEF8EBD67
:105340000DB407FEFDCF8EB58FEF8EBD0DB407FEF9
:10535000FDCF8EB58FEF8EBD0DB407FEFDCF8EB5A0
:105360008FEF8EBD0DB407FEFDCF8EB520E030E08F
:105370009FEF0CC09EBD0DB407FEFDCF8EB5F701AB
:10538000E20FF31F808300002F5F3F4F201731078C
:1053900088F32C9ADF91CF911F910F91FF90EF909E
:1053A00008950895089508950895862F0E948B22E8
:1053B0000895862F0E948B2208952F923F924F923C
:1053C0005F926F927F928F929F92AF92BF92CF9295
:1053D000DF92EF92FF920F931F93DF93CF93CDB79E
:1053E000DEB7A0970FB6F894DEBF0FBECDBF6A013F
:1053F0007B01222309F42AE0C114D104E104F10461
:1054000021F480E30E948B224BC08824992454010C
:10541000422E5524662477241E010894211C311C39
:105420008101080D191DC701B601A30192010E9457
:105430007E34F80160830894811C911CA11CB11C6E
:10544000C701B601A30192010E947E34C901DA01AD
:105450006C017D01C114D104E104F10409F771016B
:10546000E80CF91C3E010894611C711CD501C401B3
:105470000197A109B1096C01C818D9080EC0F6013D
:10548000EE0DFF1D80818A3010F4805D01C0895CC3
:105490000E948B220894E108F1086E147F0479F7CA
:1054A000A0960FB6F894DEBF0FBECDBFCF91DF91AF
:1054B0001F910F91FF90EF90DF90CF90BF90AF9032
:1054C0009F908F907F906F905F904F903F902F9024
:1054D00008952AE00E94DD290895AB0160E070E0A4
:1054E0000E94692A08958DE00E948B228AE00E9422
:1054F0008B2208950F931F938C010E94692AC80183
:105500000E94732A1F910F9108950F931F938C018E
:10551000862F0E948B22C8010E94732A1F910F912F
:1055200008950F931F938C01862F0E948B22C80130
:105530000E94732A1F910F910895EF92FF920F938B
:105540001F93CF93DF93EC017A018B0177FF0BC0A0
:105550008DE20E948B2210950095F094E094E11C5E
:10556000F11C011D111DCE01B801A7012AE00E9406
:10557000DD29DF91CF911F910F91FF90EF9008955A
:105580000F931F938C010E949D2AC8010E94732AC9
:105590001F910F910895AB01662757FD6095762FF7
:1055A0000E949D2A08950F931F938C01AB016627DB
:1055B00057FD6095762F0E949D2AC8010E94732A8C
:1055C0001F910F9108952115310521F4842F0E9418
:1055D0008B2208952A30310519F40E949D2A0895DE
:1055E0000E94DD2908950F931F938C010E94E32AE6
:1055F000C8010E94732A1F910F910895CF93DF93E2
:10560000EB0103C021960E948B2288818823D1F769
:10561000DF91CF9108950F931F938C010E94FE2A72
:10562000C8010E94732A1F910F9108950E94D922E8
:1056300090E008950E947E22089518B81BB817B80C
:105640001AB8A498A098A298A19A0000000000009F
:1056500000000000000086B1A09AA49AA29A9FEFD1
:1056600097B99AB98C708295807F0895A498A09874
:10567000A29AA19888B998B192959F7098B98BB960
:105680008BB1880F880F8BB9A19AA09AA49A08951C
:105690008CE50E94362BA49AA098A1988091C5060B
:1056A00082B98091C60688B98091C7068BB9A19A44
:1056B000A09AA49A0895A49AA098A29AA19888B9A9
:1056C00098B192959F7098B98BB98BB1880F880F5C
:1056D0008BB9A19AA09AA49A089581EC0E94362BC6
:1056E00085E50E945B2B82E50E945B2B81EA0E948C
:1056F0005B2B08951F93182F87EC0E94362B1F30C9
:1057000010F4812F01C08FE00E945B2B1F91089540
:10571000EF92FF920F931F93182F062FF42EE22E75
:105720008CE80E94362B812F0E945B2B802F0E94D9
:105730005B2B8F2D0E945B2B8E2D0E945B2B1F916C
:105740000F91FF90EF900895AF92BF92CF92DF92AA
:10575000EF92FF920F931F93DF93CF9300D00F929E
:10576000CDB7DEB7D82EC62EB42EA22EE9821F2DBD
:10577000FA820B8383E80E94362B8D2D0E945B2BCF
:105780008C2D0E945B2B8B2D0E945B2B8A2D0E94FF
:105790005B2B8F2D8295869587709981987F892BB9
:1057A0000E945B2B110F110F110F107E8B818695BC
:1057B00086958695812B0E945B2B0F900F900F9002
:1057C000CF91DF911F910F91FF90EF90DF90CF90DD
:1057D000BF90AF9008958F929F92BF92CF92DF9229
:1057E000EF92FF920F931F93DF93CF93CDB7DEB766
:1057F00028970FB6F894DEBF0FBECDBFF82EB62E99
:105800004A010B83012F1C832D83CE821D2DDF8245
:10581000E88686E80E94362B8F2D0E945B2B8B2D0D
:105820000E945B2B882D0E945B2B802F8295869592
:1058300087709B81987F892B0E945B2B000F000F44
:10584000000F007E8D81869586958695802B0E941F
:105850005B2B8D2D8295869587709E81987F892BF5
:105860000E945B2B110F110F110F107E88858695FA
:1058700086958695812B0E945B2B19820DC01A821A
:1058800003C08A818F5F8A838A8190E08815990599
:10589000C4F389818F5F8983898190E08815990598
:1058A00074F328960FB6F894DEBF0FBECDBFCF912C
:1058B000DF911F910F91FF90EF90DF90CF90BF90FD
:1058C0009F908F9008950F931F93CF93DF93EC01D8
:1058D0008B0197FF03C0C0E0D0E005C08038910580
:1058E00014F0CFE7D0E017FF03C000E010E005C0E0
:1058F0000038110514F00FE710E085E10E94362B07
:105900008C2F0E945B2B802F0E945B2BDF91CF910D
:105910001F910F9108950F931F93CF93DF93EC0185
:105920008B0197FF03C0C0E0D0E005C0803891052F
:1059300014F0CFE7D0E017FF03C000E010E005C08F
:105940000038110514F00FE710E085E70E94362BB0
:105950008C2F0E945B2B802F0E945B2BDF91CF91BD
:105960001F910F910895FF920F931F93DF93CF9391
:1059700000D00F92CDB7DEB7162F6983072F7A8339
:105980008B83F82E80E090E06FE770E00E94632C3C
:1059900080E090E06FE770E00E948B2C8CE50E9425
:1059A000362BA49AA098A198FBB808B912B980E048
:1059B00092E040C0909A909A909A909A909A909A79
:1059C000909A909A909A909A909A909A909A909A87
:1059D000909A909A909A909A909A909A909A909A77
:1059E000909A909A909A909A909A909A909A909A67
:1059F000909A909A909A909A909A909A909A909A57
:105A0000909A909A909A909A909A909A909A909A46
:105A1000909A909A909A909A909A909A909A909A36
:105A2000909A909A909A909A909A909A909A909A26
:105A3000909A909A01972FEF8F3F920709F0BACF73
:105A4000A09A0F900F900F90CF91DF911F910F911F
:105A5000FF900895DF93CF9300D00F92CDB7DEB7BC
:105A6000A49AA09AA19AA29A1BB818B812B89C9AA4
:105A7000989A999A9A9A9B9A8FEF8AB987B981B91D
:105A8000A3980000000000000000000000000000DB
:105A90000000A39A8EEA0E94362B8AEC0E94362BD5
:105AA0008FE70E945B2B81EA0E94362B80E00E94E8
:105AB0005B2B82EA0E94362B80E80E945B2B80EAF7
:105AC0000E94362B8CEB0E945B2B87EC0E94362BBE
:105AD0008AE00E945B2B81EC0E94362B85E50E94B8
:105AE0005B2B82E50E945B2B81EA0E945B2B81EBA2
:105AF0000E94362B82E20E945B2B83EB0E94362BA6
:105B000080EF0E945B2B8BEB0E94362B80E00E9483
:105B10005B2B80E00E945B2B80E00E945B2B8DEA78
:105B20000E94362B8EE80E945B2B80EB0E94362B66
:105B300080E00E945B2B8EEB0E94362B8CE10E9452
:105B40005B2B86EA0E94362B81ED0E94362B82E089
:105B50000E945B2B8FEA0E94362B82E90E94362B33
:105B600081E00E945B2B6B9A739ADE011196EEEA3C
:105B7000F1E083E001900D928150E1F769817A8133
:105B80008B810E94B32C0F900F900F90CF91DF91DB
:105B900008952F923F924F925F926F927F928F92D1
:105BA0009F92AF92BF92CF92EF92FF920F931F936B
:105BB000DF93CF9300D000D000D0CDB7DEB71C016B
:105BC0002B013A014901E982FA820B83AC82BD8242
:105BD000CE82BA010E94632CC201B4010E948B2CB8
:105BE0008CE50E94362BA49AA098A198CBB8B8B89F
:105BF000A2B88418950862187308869CC001879C17
:105C0000900D969C900D1124AA2797FDA095BA2F70
:105C10000F96A11DB11D9C01AD0164E055954795FE
:105C2000379527956A95D1F70F97A109B109877024
:105C30009070A070B07087309105A105B10509F48E
:105C40004AC083309105A105B10509F454C08430E0
:105C50009105A105B1058CF481309105A105B1052F
:105C600009F451C082309105A105B1050CF047C07F
:105C70000097A105B10559F054C085309105A105E3
:105C8000B10589F10697A105B1054CF530C0909A90
:105C9000909A909A909A909A909A909A909A909AB4
:105CA000909A909A909A909A909A909A909A909AA4
:105CB000909A909A909A909A909A909A909A909A94
:105CC000909A909A909A909A909A909A909A909A84
:105CD000909A909A909A909A909A909A909A909A74
:105CE000909A909A909A909A909A909A909A909A64
:105CF000909A909A909A909A909A909A909A909A54
:105D0000909A909A909A909A909A909A909A2150FC
:105D100030404040504012161306140615060CF48D
:105D2000B6CFA09A80E090E06FE770E00E94632C0D
:105D300080E090E06FE770E00E948B2C26960FB613
:105D4000F894DEBF0FBECDBFCF91DF911F910F91B1
:105D5000FF90EF90CF90BF90AF909F908F907F90EB
:105D60006F905F904F903F902F900895AF92BF92A9
:105D7000CF92EF92FF920F93DF93CF9300D000D09A
